{
  "contractName": "Payroll",
  "abi": [
    {
      "constant": true,
      "inputs": [],
      "name": "owner",
      "outputs": [
        {
          "name": "",
          "type": "address"
        }
      ],
      "payable": false,
      "stateMutability": "view",
      "type": "function"
    },
    {
      "constant": true,
      "inputs": [
        {
          "name": "",
          "type": "address"
        }
      ],
      "name": "employees",
      "outputs": [
        {
          "name": "id",
          "type": "address"
        },
        {
          "name": "salary",
          "type": "uint256"
        },
        {
          "name": "lastPayday",
          "type": "uint256"
        }
      ],
      "payable": false,
      "stateMutability": "view",
      "type": "function"
    },
    {
      "constant": false,
      "inputs": [
        {
          "name": "newOwner",
          "type": "address"
        }
      ],
      "name": "transferOwnership",
      "outputs": [],
      "payable": false,
      "stateMutability": "nonpayable",
      "type": "function"
    },
    {
      "anonymous": false,
      "inputs": [
        {
          "indexed": true,
          "name": "previousOwner",
          "type": "address"
        },
        {
          "indexed": true,
          "name": "newOwner",
          "type": "address"
        }
      ],
      "name": "OwnershipTransferred",
      "type": "event"
    },
    {
      "constant": false,
      "inputs": [
        {
          "name": "employeeId",
          "type": "address"
        },
        {
          "name": "salary",
          "type": "uint256"
        }
      ],
      "name": "addEmployee",
      "outputs": [],
      "payable": false,
      "stateMutability": "nonpayable",
      "type": "function"
    },
    {
      "constant": false,
      "inputs": [
        {
          "name": "employeeId",
          "type": "address"
        },
        {
          "name": "salary",
          "type": "uint256"
        },
        {
          "name": "lastPayday",
          "type": "uint256"
        }
      ],
      "name": "addEmployeeWithLastPayday",
      "outputs": [],
      "payable": false,
      "stateMutability": "nonpayable",
      "type": "function"
    },
    {
      "constant": false,
      "inputs": [
        {
          "name": "employeeId",
          "type": "address"
        }
      ],
      "name": "removeEmployee",
      "outputs": [],
      "payable": false,
      "stateMutability": "nonpayable",
      "type": "function"
    },
    {
      "constant": false,
      "inputs": [
        {
          "name": "employeeId",
          "type": "address"
        },
        {
          "name": "salary",
          "type": "uint256"
        }
      ],
      "name": "updateEmployee",
      "outputs": [],
      "payable": false,
      "stateMutability": "nonpayable",
      "type": "function"
    },
    {
      "constant": false,
      "inputs": [
        {
          "name": "newEmployeeId",
          "type": "address"
        }
      ],
      "name": "changePaymentAddress",
      "outputs": [],
      "payable": false,
      "stateMutability": "nonpayable",
      "type": "function"
    },
    {
      "constant": false,
      "inputs": [],
      "name": "addFund",
      "outputs": [
        {
          "name": "",
          "type": "uint256"
        }
      ],
      "payable": true,
      "stateMutability": "payable",
      "type": "function"
    },
    {
      "constant": false,
      "inputs": [],
      "name": "calculateRunway",
      "outputs": [
        {
          "name": "",
          "type": "uint256"
        }
      ],
      "payable": false,
      "stateMutability": "nonpayable",
      "type": "function"
    },
    {
      "constant": false,
      "inputs": [],
      "name": "hasEnoughFund",
      "outputs": [
        {
          "name": "",
          "type": "bool"
        }
      ],
      "payable": false,
      "stateMutability": "nonpayable",
      "type": "function"
    },
    {
      "constant": false,
      "inputs": [],
      "name": "getPaid",
      "outputs": [],
      "payable": false,
      "stateMutability": "nonpayable",
      "type": "function"
    }
  ],
  "bytecode": "0x6060604052336000806101000a81548173ffffffffffffffffffffffffffffffffffffffff021916908373ffffffffffffffffffffffffffffffffffffffff160217905550611326806100536000396000f3006060604052600436106100ba576000357c0100000000000000000000000000000000000000000000000000000000900463ffffffff16806323fed09e146100bf5780634ec19512146100ec5780635e91d8ec146101155780637124d613146101575780638da5cb5b14610190578063a2f09dfa146101e5578063beddb20814610203578063cf41d6f81461024e578063d067894714610263578063d108177a146102ea578063e7fd9a1314610323578063f2fde38b14610365575b600080fd5b34156100ca57600080fd5b6100d261039e565b604051808215151515815260200191505060405180910390f35b34156100f757600080fd5b6100ff6103af565b6040518082815260200191505060405180910390f35b341561012057600080fd5b610155600480803573ffffffffffffffffffffffffffffffffffffffff169060200190919080359060200190919050506103e2565b005b341561016257600080fd5b61018e600480803573ffffffffffffffffffffffffffffffffffffffff16906020019091905050610665565b005b341561019b57600080fd5b6101a3610910565b604051808273ffffffffffffffffffffffffffffffffffffffff1673ffffffffffffffffffffffffffffffffffffffff16815260200191505060405180910390f35b6101ed610935565b6040518082815260200191505060405180910390f35b341561020e57600080fd5b61024c600480803573ffffffffffffffffffffffffffffffffffffffff16906020019091908035906020019091908035906020019091905050610954565b005b341561025957600080fd5b610261610af6565b005b341561026e57600080fd5b61029a600480803573ffffffffffffffffffffffffffffffffffffffff16906020019091905050610c9f565b604051808473ffffffffffffffffffffffffffffffffffffffff1673ffffffffffffffffffffffffffffffffffffffff168152602001838152602001828152602001935050505060405180910390f35b34156102f557600080fd5b610321600480803573ffffffffffffffffffffffffffffffffffffffff16906020019091905050610ce9565b005b341561032e57600080fd5b610363600480803573ffffffffffffffffffffffffffffffffffffffff16906020019091908035906020019091905050610eeb565b005b341561037057600080fd5b61039c600480803573ffffffffffffffffffffffffffffffffffffffff1690602001909190505061108c565b005b6000806103a96103af565b11905090565b60006103dd6001543073ffffffffffffffffffffffffffffffffffffffff16316111e190919063ffffffff16565b905090565b60008060009054906101000a900473ffffffffffffffffffffffffffffffffffffffff1673ffffffffffffffffffffffffffffffffffffffff163373ffffffffffffffffffffffffffffffffffffffff1614151561043f57600080fd5b600260008473ffffffffffffffffffffffffffffffffffffffff1673ffffffffffffffffffffffffffffffffffffffff168152602001908152602001600020905060008160000160009054906101000a900473ffffffffffffffffffffffffffffffffffffffff1673ffffffffffffffffffffffffffffffffffffffff16141515156104c757fe5b61054681606060405190810160405290816000820160009054906101000a900473ffffffffffffffffffffffffffffffffffffffff1673ffffffffffffffffffffffffffffffffffffffff1673ffffffffffffffffffffffffffffffffffffffff168152602001600182015481526020016002820154815250506111fc565b61059d600260008573ffffffffffffffffffffffffffffffffffffffff1673ffffffffffffffffffffffffffffffffffffffff1681526020019081526020016000206001015460015461128890919063ffffffff16565b600181905550670de0b6b3a76400008202600260008573ffffffffffffffffffffffffffffffffffffffff1673ffffffffffffffffffffffffffffffffffffffff16815260200190815260200160002060010181905550610613670de0b6b3a764000083026001546112a190919063ffffffff16565b60018190555042600260008573ffffffffffffffffffffffffffffffffffffffff1673ffffffffffffffffffffffffffffffffffffffff16815260200190815260200160002060020181905550505050565b60008060009054906101000a900473ffffffffffffffffffffffffffffffffffffffff1673ffffffffffffffffffffffffffffffffffffffff163373ffffffffffffffffffffffffffffffffffffffff161415156106c257600080fd5b336000600260008373ffffffffffffffffffffffffffffffffffffffff1673ffffffffffffffffffffffffffffffffffffffff168152602001908152602001600020905060008160000160009054906101000a900473ffffffffffffffffffffffffffffffffffffffff1673ffffffffffffffffffffffffffffffffffffffff161415151561074d57fe5b33600260003373ffffffffffffffffffffffffffffffffffffffff1673ffffffffffffffffffffffffffffffffffffffff1681526020019081526020016000209350848460000160006101000a81548173ffffffffffffffffffffffffffffffffffffffff021916908373ffffffffffffffffffffffffffffffffffffffff16021790555083600260008773ffffffffffffffffffffffffffffffffffffffff1673ffffffffffffffffffffffffffffffffffffffff1681526020019081526020016000206000820160009054906101000a900473ffffffffffffffffffffffffffffffffffffffff168160000160006101000a81548173ffffffffffffffffffffffffffffffffffffffff021916908373ffffffffffffffffffffffffffffffffffffffff1602179055506001820154816001015560028201548160020155905050600260008273ffffffffffffffffffffffffffffffffffffffff1673ffffffffffffffffffffffffffffffffffffffff168152602001908152602001600020600080820160006101000a81549073ffffffffffffffffffffffffffffffffffffffff02191690556001820160009055600282016000905550505050505050565b6000809054906101000a900473ffffffffffffffffffffffffffffffffffffffff1681565b60003073ffffffffffffffffffffffffffffffffffffffff1631905090565b60008060009054906101000a900473ffffffffffffffffffffffffffffffffffffffff1673ffffffffffffffffffffffffffffffffffffffff163373ffffffffffffffffffffffffffffffffffffffff161415156109b157600080fd5b600260008573ffffffffffffffffffffffffffffffffffffffff1673ffffffffffffffffffffffffffffffffffffffff1681526020019081526020016000209050610a11670de0b6b3a764000084026001546112a190919063ffffffff16565b6001819055506060604051908101604052808573ffffffffffffffffffffffffffffffffffffffff168152602001670de0b6b3a76400008502815260200183815250600260008673ffffffffffffffffffffffffffffffffffffffff1673ffffffffffffffffffffffffffffffffffffffff16815260200190815260200160002060008201518160000160006101000a81548173ffffffffffffffffffffffffffffffffffffffff021916908373ffffffffffffffffffffffffffffffffffffffff160217905550602082015181600101556040820151816002015590505050505050565b600080336000600260008373ffffffffffffffffffffffffffffffffffffffff1673ffffffffffffffffffffffffffffffffffffffff168152602001908152602001600020905060008160000160009054906101000a900473ffffffffffffffffffffffffffffffffffffffff1673ffffffffffffffffffffffffffffffffffffffff1614151515610b8457fe5b600260003373ffffffffffffffffffffffffffffffffffffffff1673ffffffffffffffffffffffffffffffffffffffff1681526020019081526020016000209350610bdd600a85600201546112a190919063ffffffff16565b92504283101515610bea57fe5b82600260003373ffffffffffffffffffffffffffffffffffffffff1673ffffffffffffffffffffffffffffffffffffffff168152602001908152602001600020600201819055508360000160009054906101000a900473ffffffffffffffffffffffffffffffffffffffff1673ffffffffffffffffffffffffffffffffffffffff166108fc85600101549081150290604051600060405180830381858888f193505050501515610c9957600080fd5b50505050565b60026020528060005260406000206000915090508060000160009054906101000a900473ffffffffffffffffffffffffffffffffffffffff16908060010154908060020154905083565b60008060009054906101000a900473ffffffffffffffffffffffffffffffffffffffff1673ffffffffffffffffffffffffffffffffffffffff163373ffffffffffffffffffffffffffffffffffffffff16141515610d4657600080fd5b81600260008473ffffffffffffffffffffffffffffffffffffffff1673ffffffffffffffffffffffffffffffffffffffff168152602001908152602001600020915060008260000160009054906101000a900473ffffffffffffffffffffffffffffffffffffffff1673ffffffffffffffffffffffffffffffffffffffff1614151515610dcf57fe5b610e4e82606060405190810160405290816000820160009054906101000a900473ffffffffffffffffffffffffffffffffffffffff1673ffffffffffffffffffffffffffffffffffffffff1673ffffffffffffffffffffffffffffffffffffffff168152602001600182015481526020016002820154815250506111fc565b610e67826001015460015461128890919063ffffffff16565b600181905550600260008273ffffffffffffffffffffffffffffffffffffffff1673ffffffffffffffffffffffffffffffffffffffff168152602001908152602001600020600080820160006101000a81549073ffffffffffffffffffffffffffffffffffffffff0219169055600182016000905560028201600090555050505050565b60008060009054906101000a900473ffffffffffffffffffffffffffffffffffffffff1673ffffffffffffffffffffffffffffffffffffffff163373ffffffffffffffffffffffffffffffffffffffff16141515610f4857600080fd5b600260008473ffffffffffffffffffffffffffffffffffffffff1673ffffffffffffffffffffffffffffffffffffffff1681526020019081526020016000209050610fa8670de0b6b3a764000083026001546112a190919063ffffffff16565b6001819055506060604051908101604052808473ffffffffffffffffffffffffffffffffffffffff168152602001670de0b6b3a76400008402815260200142815250600260008573ffffffffffffffffffffffffffffffffffffffff1673ffffffffffffffffffffffffffffffffffffffff16815260200190815260200160002060008201518160000160006101000a81548173ffffffffffffffffffffffffffffffffffffffff021916908373ffffffffffffffffffffffffffffffffffffffff1602179055506020820151816001015560408201518160020155905050505050565b6000809054906101000a900473ffffffffffffffffffffffffffffffffffffffff1673ffffffffffffffffffffffffffffffffffffffff163373ffffffffffffffffffffffffffffffffffffffff161415156110e757600080fd5b600073ffffffffffffffffffffffffffffffffffffffff168173ffffffffffffffffffffffffffffffffffffffff161415151561112357600080fd5b8073ffffffffffffffffffffffffffffffffffffffff166000809054906101000a900473ffffffffffffffffffffffffffffffffffffffff1673ffffffffffffffffffffffffffffffffffffffff167f8be0079c531659141344cd1fd0a4f28419497f9722a3daafe3b4186f6b6457e060405160405180910390a3806000806101000a81548173ffffffffffffffffffffffffffffffffffffffff021916908373ffffffffffffffffffffffffffffffffffffffff16021790555050565b60008082848115156111ef57fe5b0490508091505092915050565b600061123e600a61123061121d85604001514261128890919063ffffffff16565b85602001516112bf90919063ffffffff16565b6111e190919063ffffffff16565b9050816000015173ffffffffffffffffffffffffffffffffffffffff166108fc829081150290604051600060405180830381858888f19350505050151561128457600080fd5b5050565b600082821115151561129657fe5b818303905092915050565b60008082840190508381101515156112b557fe5b8091505092915050565b60008060008414156112d457600091506112f3565b82840290508284828115156112e557fe5b041415156112ef57fe5b8091505b50929150505600a165627a7a72305820612324505d6644576fbb2c9b57ae378be0b044313b547c568c4b1c257c7916d60029",
  "source": "pragma solidity ^0.4.17;\n\nimport './Ownable.sol';\nimport './SafeMath.sol';\n\n//员工薪酬智能合约系统\ncontract Payroll is Ownable {\n    using SafeMath for uint;\n    \n\t//员工对象，包含收款地址id , 薪酬salary , 上一次薪酬发放时间lastPayday \n    struct Employee {\n        address id;\n        uint salary;\n        uint lastPayday;\n    }\n    \n\t//薪酬发放周期\n    uint constant payDuration = 10 seconds;\n\n\t//总薪酬\n    uint totalSalary;\n\t\n    //收款地址和员工对象Map\n    mapping(address => Employee) public employees;\n\n    modifier employeeExist(address employeeId){\n        var employee = employees[employeeId];\n        assert(employee.id != 0x0);\n        _;\n    }\n\t\n    modifier deleteEmployee(address employeeId) {\n     _;\n     delete employees[employeeId];\n    }\n    \n\t//执行支付\n    function _partialPaid(Employee employee) private {\n        uint payment = employee.salary.mul(now.sub(employee.lastPayday)).div(payDuration);\n        //uint payment = employee.salary*(now-employee.lastPayday)/payDuration;\n        employee.id.transfer(payment);\n    }\n\n\t//添加员工\n    function addEmployee(address employeeId, uint salary) onlyOwner {\n        var employee = employees[employeeId];\n        totalSalary = totalSalary.add(salary * 1 ether);\n       //totalSalary = totalSalary + salary * 1 ether;\n        employees[employeeId] = Employee(employeeId,salary * 1 ether,now);\n    }\n    //添加员工\n    function addEmployeeWithLastPayday(address employeeId, uint salary, uint lastPayday) onlyOwner{\n        var employee = employees[employeeId];\n        \n        totalSalary = totalSalary.add(salary * 1 ether);\n        //totalSalary = totalSalary + salary * 1 ether;\n        employees[employeeId] = Employee(employeeId,salary * 1 ether,lastPayday);\n    }\n    //移除员工\n    function removeEmployee(address employeeId) onlyOwner deleteEmployee(employeeId) {\n        var employee = employees[employeeId];\n        assert(employee.id != 0x0);\n        _partialPaid(employee);\n        totalSalary = totalSalary.sub(employee.salary);\n    }\n    //更新员工收款地址和薪酬\n    function updateEmployee(address employeeId, uint salary) onlyOwner{\n        var employee = employees[employeeId];\n        assert(employee.id != 0x0);\n        _partialPaid(employee);\n        totalSalary = totalSalary.sub(employees[employeeId].salary);\n        employees[employeeId].salary = salary * 1 ether;\n        totalSalary = totalSalary.add(salary * 1 ether);\n        employees[employeeId].lastPayday = now;\n    }\n    \n\t//更改员工收款地址\n    function changePaymentAddress(address newEmployeeId) onlyOwner employeeExist(msg.sender) deleteEmployee(msg.sender){\n\t   var employee = employees[msg.sender];\n       employee.id = newEmployeeId;\n       employees[newEmployeeId] = employee;\n    }\n    \n\t//向总账户汇入资金\n    function addFund() payable returns (uint) {\n        return this.balance;\n    }\n    \n\t//剩余资金还能支付的薪酬次数\n    function calculateRunway() returns (uint) {\n        return this.balance.div(totalSalary);\n    }\n    \n\t\n    function hasEnoughFund() returns (bool) {\n        return calculateRunway() > 0;\n    }\n    \n\t//员工调用此方法给自己发工资\n    function getPaid() employeeExist(msg.sender){\n        var employee = employees[msg.sender];\n\n       uint nextPayday =  employee.lastPayday.add(payDuration);\n       //uint nextPayday =  employee.lastPayday + payDuration ;\n        assert(nextPayday < now);\n        \n        employees[msg.sender].lastPayday = nextPayday;\n        employee.id.transfer(employee.salary);\n    }\n}",
  "sourcePath": "/home/juicebox/Code/payroll2/contracts/Payroll.sol",
  "compiler": {
    "name": "solc",
    "version": "0.4.19+commit.c4cbbb05.Emscripten.clang"
  },
  "schemaVersion": "2.0.0",
  "updatedAt": "2018-03-25T09:35:21.984Z"
}